:020000040000FA
:100000000C9463000C948B000C948B000C94BD0436
:100010000C94BD040C94BD040C948B000C948B00C8
:100020000C948B000C948B000C948B000C948B0024
:100030000C948B000C948B000C948B000C948B0014
:100040000C9473040C948B000C9441040C941B04CA
:100050000C948B000C948B000C948B000C948B00F4
:100060000C948B000C948B000000000024002700EF
:100070002A0000000008000201000003040700003D
:1000800000000000000000000000230026002900FE
:1000900000000000250028002B00040404040404D0
:1000A0000404020202020202030303030303010227
:1000B00004081020408001020408102001020408F6
:1000C00010203505840811241FBECFEFD8E0DEBF15
:1000D000CDBF11E0A0E0B1E0E6EBF1E102C0059098
:1000E0000D92A83BB107D9F722E0A8EBB1E001C01F
:1000F0001D92A93DB207E1F710E0C2E6D0E004C0CE
:100100002197FE010E94C808C136D107C9F70E9495
:10011000A2060C94CE080C940000AF92BF92CF922E
:10012000DF92EF92FF920F931F93CF93DF936C01B7
:100130007B018B01040F151FEB015E01AE18BF0898
:10014000C017D10759F06991D601ED91FC9101904A
:10015000F081E02DC6010995892B79F7C501DF9162
:10016000CF911F910F91FF90EF90DF90CF90BF90B4
:10017000AF900895FC01538D448D252F30E0842FDE
:1001800090E0821B930B541710F0CF9608950197BF
:100190000895FC01918D828D981761F0A28DAE0FAC
:1001A000BF2FB11D5D968C91928D9F5F9F73928F33
:1001B00090E008958FEF9FEF0895FC01918D828D5F
:1001C000981731F0828DE80FF11D858D90E008952C
:1001D0008FEF9FEF0895FC01918D228D892F90E084
:1001E000805C9F4F821B91098F739927089585E04A
:1001F00092E00E94EB0021E0892B09F420E0822F9D
:10020000089580E090E0892B29F00E94F700811189
:100210000C9400000895FC01A48DA80FB92FB11D06
:10022000A35ABF4F2C91848D90E001968F7399272C
:10023000848FA689B7892C93A089B1898C9183700A
:1002400080648C93938D848D981306C00288F38903
:10025000E02D80818F7D80830895EF92FF920F9330
:100260001F93CF93DF93EC0181E0888F9B8D8C8D62
:1002700098131AC0E889F989808185FF15C09FB756
:10028000F894EE89FF896083E889F9898081837019
:10029000806480839FBF81E090E0DF91CF911F91C8
:1002A0000F91FF90EF900895F62E0B8D10E00F5FE9
:1002B0001F4F0F731127E02E8C8D8E110CC00FB6BF
:1002C00007FCFACFE889F989808185FFF5CFCE0157
:1002D0000E940B01F1CFEB8DEC0FFD2FF11DE35AC6
:1002E000FF4FF0829FB7F8940B8FEA89FB898081DA
:1002F0008062CFCFCF93DF93EC01888D8823B9F054
:10030000AA89BB89E889F9898C9185FD03C0808120
:1003100086FD0DC00FB607FCF7CF8C9185FFF2CF9D
:10032000808185FFEDCFCE010E940B01E9CFDF91E7
:10033000CF910895833081F028F4813099F0823094
:10034000A9F008958730A9F08830C9F08430B1F45D
:10035000809180008F7D03C0809180008F77809393
:100360008000089584B58F7784BD089584B58F7D0E
:10037000FBCF8091B0008F778093B000089580917B
:10038000B0008F7DF9CFCF93DF93EFE7F0E084915A
:10039000EBEBF0E0D491E7EAF0E0C491CC23A1F0DC
:1003A00081110E949A01EC2FF0E0EE0FFF1FEA5737
:1003B000FF4FA591B491EC91ED2381E090E009F419
:1003C00080E0DF91CF91089580E090E0FACF1F9315
:1003D000CF93DF93282F30E0F901EE58FF4F84913F
:1003E000F901E255FF4FD491F901E656FF4FC49150
:1003F000CC23A9F0162F81110E949A01EC2FF0E076
:10040000EE0FFF1FE057FF4FA591B4918FB7F894FF
:10041000EC91111108C0D095DE23DC938FBFDF91E2
:10042000CF911F910895DE2BF8CFCF93DF9390E00B
:10043000FC01E255FF4F249186569F4FFC018491A9
:100440008823D1F090E0880F991FFC01E859FF4FF5
:10045000A591B491FC01E057FF4FC591D491611172
:100460000EC09FB7F8948C91E22FE0958E238C9369
:100470002881E223E8839FBFDF91CF9108958FB752
:10048000F894EC91E22BEC938FBFF6CF3FB7F89442
:100490008091FD019091FE01A091FF01B0910002B9
:1004A00026B5A89B05C02F3F19F00196A11DB11DCF
:1004B0003FBFBA2FA92F982F8827BC01CD01620F0B
:1004C000711D811D911D42E0660F771F881F991FC6
:1004D0004A95D1F708958F929F92AF92BF92CF9293
:1004E000DF92EF92FF924B015C010E9446026B018A
:1004F0007C010E9446026C197D098E099F09683EA5
:10050000734081059105A8F321E0821A9108A108A2
:10051000B10888EEC80E83E0D81EE11CF11C8114DE
:100520009104A104B10429F7FF90EF90DF90CF90E0
:10053000BF90AF909F908F900895209103023091CB
:1005400004022817390771F4909101028091020288
:10055000981741F0E0910102F0E0E854FE4F8081ED
:1005600090E008958FEF9FEF08950895EF92FF9226
:100570000F931F93CF93DF93DC015C96ED90FC907B
:100580005D97E114F10479F481E090E013969C9377
:100590008E93129790E080E0DF91CF911F910F91A1
:1005A000FF90EF9008955196ED91FC9152975096DF
:1005B0008C915097982F90950FB75E962C915E97DF
:1005C000122F127021FD6095F8942081112319F1EA
:1005D000282B2083E7012197F1F728E0462F50E0F0
:1005E000308160FF1AC0382B3083E7012197F1F783
:1005F000BA0175956795215089F7112381F08081A3
:10060000892380830FBF5C968D919C910197F1F7B0
:1006100081E090E0C1CF2923DCCF3923E5CF908161
:10062000892BEFCF2091030230910402281739075C
:1006300071F4809102022091010290E0805C9F4F52
:10064000821B910960E470E00E94A008089590E088
:1006500080E00895209103023091040228173907A1
:10066000B9F49091010280910202981789F0E0910B
:100670000102F0E0E854FE4F80812091010230E059
:100680002F5F3F4F2F7333272093010290E008958F
:100690008FEF9FEF0895089590E080E00895CF9345
:1006A000DF93EC0160E08E810E94E70161E08E81C2
:1006B0000E94E70160E08E810E94E7018BE891E0F3
:1006C0000197F1F7DF91CF910895CF92DF92EF92EA
:1006D000FF920F931F93CF93DF936C017C0187E010
:1006E000E80EF11CD0E0C0E0062F10E0B8010C2E9F
:1006F00002C0759567950A94E2F76170F7018191E0
:100700007F010E94E7012196C430D10579F7C60127
:10071000DF91CF911F910F91FF90EF90DF90CF90DD
:100720000C944F03CF92DF92EF92FF920F931F939F
:10073000CF93DF93EC01F62E642F8C810E94E701AA
:100740008D818F3F19F060E00E94E7010F2D10E0CE
:100750008F8584FF25C06E0187E0C80ED11CF12C67
:10076000E12CB8010E2C02C0759567950A94E2F74A
:100770006170F60181916F010E94E701FFEFEF1AAE
:10078000FF0A88E0E816F10461F7CE01DF91CF910E
:100790001F910F91FF90EF90DF90CF900C944F033B
:1007A000B80184E0759567958A95E1F7CE010E94BE
:1007B00065036F2DCE01DF91CF911F910F91FF90B7
:1007C000EF90DF90CF900C94650340E0682F82EAB1
:1007D00092E00C94920381E00E94E5038BE39FE199
:1007E0000197F1F7089541E00E94920381E090E0C3
:1007F0000895FB0101900020E9F73197AF01461BF6
:10080000570BDC01ED91FC910280F381E02D0994FE
:10081000CF93DF93BC018AEB92E00E94F903EC01D5
:1008200060E371E08AEB92E00E94F9038C0F9D1F58
:10083000DF91CF9108951F920F920FB60F9211245E
:100840002F933F934F935F936F937F938F939F93D8
:10085000AF93BF93EF93FF9385E092E00E940B016B
:10086000FF91EF91BF91AF919F918F917F916F9188
:100870005F914F913F912F910F900FBE0F901F905E
:1008800018951F920F920FB60F9211242F938F93EA
:100890009F93EF93FF93E0911502F09116028081F0
:1008A000E0911B02F0911C0282FD1BC0908180919F
:1008B0001E028F5F8F7320911F02821741F0E0911B
:1008C0001E02F0E0EB5FFD4F958F80931E02FF91BB
:1008D000EF919F918F912F910F900FBE0F901F90CE
:1008E00018958081F4CF1F920F920FB60F921124AA
:1008F0002F933F938F939F93AF93BF938091F90171
:100900009091FA01A091FB01B091FC013091F801A6
:1009100023E0230F2D3758F50196A11DB11D20931B
:10092000F8018093F9019093FA01A093FB01B09331
:10093000FC018091FD019091FE01A091FF01B09119
:1009400000020196A11DB11D8093FD019093FE014F
:10095000A093FF01B0930002BF91AF919F918F913F
:100960003F912F910F900FBE0F901F90189526E882
:10097000230F0296A11DB11DD2CF1F920F920FB669
:100980000F9211242F933F934F935F936F937F9315
:100990008F939F93AF93BF93EF93FF93E0910302E5
:1009A000F0910402309749F0A685B7858585968D2C
:1009B00091FF14C09C918923A1F4FF91EF91BF9105
:1009C000AF919F918F917F916F915F914F913F91E7
:1009D0002F910F900FBE0F901F9018959C91892317
:1009E00061F7A389B4899C918589809589238C932B
:1009F000868997890197F1F7608D718DA685B785F6
:100A0000558538E020E0CB010197F1F7822F90E087
:100A100095958795282F4C91452309F020683150F2
:100A200091F7868D81FD20958091020290E00196DC
:100A30008F73992730910102381799F0A091020223
:100A4000B0E0A854BE4F2C9380930202828D938D08
:100A50000197F1F7A389B4898C919589892B8C939F
:100A6000ACCF868D8160868FF1CFCF93DF931092CC
:100A700008021092070288EE93E0A0E0B0E08093B5
:100A8000090290930A02A0930B02B0930C0224E097
:100A900031E0309306022093050225EC30E03093DC
:100AA00012022093110224EC30E0309314022093C0
:100AB000130220EC30E0309316022093150221EC53
:100AC00030E0309318022093170222EC30E030938C
:100AD0001A022093190226EC30E030931C02209376
:100AE0001B0210921E0210921F02109220021092FE
:100AF00021021092BD021092BC028093BE0290931C
:100B0000BF02A093C002B093C10282E291E0909331
:100B1000BB028093BA021092D1021092D0021092BE
:100B2000D3021092D2021092D5021092D4021092E7
:100B3000D7021092D6026091D8026E7F6D7F6093CB
:100B4000D8026695617081E068278AE00E94E7011B
:100B500061E08AE00E941502E8EBF0E0E491E093A6
:100B6000CA02E4EAF0E0E491F0E0EE0FFF1FE05784
:100B7000FF4F859194919093CC028093CB0260E0DB
:100B800089E00E9415028091D80281FD04C061E0D5
:100B900089E00E94E70189E08093C602E7EBF0E07C
:100BA000E491E093C702E3EAF0E0E491F0E0EE0FB5
:100BB000FF1FEA57FF4F859194919093C90280934C
:100BC000C8021092A5021092A40286E191E09093CF
:100BD000A3028093A2028CE08093A6028FEF809301
:100BE000A7028BE08093A80285E08093A90284E0AD
:100BF0008093AA0283E08093AB0282E08093AC02F0
:100C00001092AD021092AE021092AF021092B0029A
:100C10001092B10281E08093B5021092B60280E496
:100C20008093B70280E18093B80280E58093B90297
:100C300061E08CE00E9415028091A7028F3F19F0BD
:100C400061E00E94150261E08091A8020E941502F5
:100C5000C2EAD2E09E01225A32408091B10284FD64
:100C60000BC084E090E021962817390744F461E036
:100C70008E810E941502EECF88E090E0F4CF8BE3E6
:100C80009DE00197F1F760E08091A6020E94E701E4
:100C900060E08091A8020E94E7018091A7028F3F47
:100CA00019F060E00E94E7018091B10284FD34C038
:100CB00063E082EA92E00E946503CBE4D6E4CE01D1
:100CC0000197F1F763E082EA92E00E9465032197C1
:100CD000F1F763E082EA92E00E94650383E592E027
:100CE0000197F1F762E082EA92E00E946503809149
:100CF000B10280620E94E50384E08093B2028CE03E
:100D00000E94E5030E94EB0382E08093B30286E039
:100D1000DF91CF910C94E50380620E94E5038BE4A0
:100D200096E40197F1F78091B10280620E94E50399
:100D300083E592E00197F1F78091B10280620E9411
:100D4000E503D5CF789484B5826084BD84B5816095
:100D500084BD85B5826085BD85B5816085BD809186
:100D60006E00816080936E001092810080918100FE
:100D700082608093810080918100816080938100F6
:100D8000809180008160809380008091B1008460B8
:100D90008093B1008091B00081608093B000809119
:100DA0007A00846080937A0080917A0082608093D8
:100DB0007A0080917A00816080937A0080917A0035
:100DC000806880937A001092C100E0911502F09142
:100DD000160282E08083E0911102F09112021082EB
:100DE000E0911302F09114028FEC808310921D02A7
:100DF000E0911902F0911A0286E08083E0911702D7
:100E0000F0911802808180618083E0911702F09157
:100E10001802808188608083E0911702F0911802A7
:100E2000808180688083E0911702F09118028081B0
:100E30008F7D80831092D5021092D4021092D3023B
:100E40001092D2021092D1021092D0028DE991E05C
:100E50009093D7028093D6029091C602963108F003
:100E600047C02DEB30E03093D1022093D0022BE924
:100E700031E03093D3022093D2022CE231E0309360
:100E8000D5022093D4022091680084E0983048F085
:100E900031E09E3008F430E081E001C0880F3A95DF
:100EA000EAF7822B809368002DE630E0983050F00E
:100EB0002BE630E09E3030F02CE630E0963110F03A
:100EC00030E020E03093CE022093CD02292F30E095
:100ED000983008F0E2C081E001C0880F9A95EAF7E7
:100EE0008093CF028091D6029091D7020197F1F7BB
:100EF0008091D4029091D502892B49F1E0910302AF
:100F0000F091040282E0EA3BF80709F1309739F0EA
:100F1000A389B4899C918589809589238C9380913C
:100F2000D8028E7F8093D8021092020210920102A2
:100F30008AEB92E09093040280930302E091CD0249
:100F4000F091CE0280819091CF02892B808361E065
:100F500087E00E94150260E08DE00E94150261E0CA
:100F600080E00E94150261E086E00E941502C0E068
:100F7000D0E00E94C301019709F0BBC061E087E0A7
:100F80000E94E7016CE271E080E090E00E946B0259
:100F900061E086E00E94E70160E080E00E94E701F6
:100FA000E091B502E23008F085C0E150F0E0EE5586
:100FB000FD4F848980680E94E50363E371E082EA63
:100FC00092E00E94F9036CE271E080E090E00E9400
:100FD0006B020E94C301019709F089C00E94EB03D4
:100FE0006DE371E082EA92E00E94F9036CE271E045
:100FF00080E090E00E946B020E94C301019709F01B
:101000005BC00E94EB036BE471E082EA92E00E9415
:10101000F9038CE591E00E94080464E170E080E04F
:1010200090E00E946B0286E691E00E9408046CE268
:1010300071E080E090E00E946B028FE791E00E94F7
:1010400008048FE991E00E94080464E170E080E008
:1010500090E00E946B026AE18AEB92E00E94B60285
:1010600060E371E08AEB92E00E94F90364E170E0D2
:1010700080E090E00E946B026EE170E080E090E022
:101080000E946B02209709F474CF0E94F700882316
:1010900009F46FCF0E9400006CCF9E3040F42850BE
:1010A000310981E001C0880F2A95EAF719CF2E5047
:1010B0003109F7CFE1E07ACF0E94EB0361EB71E0F9
:1010C00082EA92E00E94F9036EE170E080E090E035
:1010D0000E946B0261E080E00E94E70160E086E030
:1010E0000E94E70160E087E00E94E701CBCF0E9409
:1010F000EB0361EB71E082EA92E00E94F9036AE09F
:1011000070E080E090E0E4CF82E291E09093BB0257
:101110008093BA0280910302909104028A5B92400C
:1011200071F4E091CD02F091CE0290818091CF02D6
:1011300080958923808310920402109203020895FF
:1011400097FB072E16F4009407D077FD09D00E9474
:10115000B40807FC05D03EF4909581959F4F089503
:10116000709561957F4F0895AA1BBB1B51E107C085
:10117000AA1FBB1FA617B70710F0A61BB70B881F27
:10118000991F5A95A9F780959095BC01CD010895B6
:10119000EE0FFF1F0590F491E02D099410E0C2E6D8
:1011A000D0E004C0FE010E94C8082196C336D107D2
:1011B000C9F7F894FFCF000000002D018D00BA00A0
:1011C0007A01EB00C900DD0000000000F3038D0090
:1011D0004C034B0300000000B6028D004C03B50227
:1011E00012032A039D020D0A004E4F495359212133
:1011F0002121004B4545502053494C454E54212157
:1012000000504C4543452053494C454E5421212123
:10121000200041542B434D47463D310041542B4360
:101220004D47533D222B323531393531313233324E
:101230003132220D005448455245204953204E4F2B
:1012400049534520494E20544845204C494252417B
:101250005259202100504C454153452041444A55A4
:0E126000535420495421004E4F524D414C0032
:107E0000112484B714BE81FFF0D085E080938100F7
:107E100082E08093C00088E18093C10086E0809377
:107E2000C20080E18093C4008EE0C9D0259A86E02C
:107E300020E33CEF91E0309385002093840096BBD3
:107E4000B09BFECF1D9AA8958150A9F7CC24DD24C4
:107E500088248394B5E0AB2EA1E19A2EF3E0BF2EE7
:107E6000A2D0813461F49FD0082FAFD0023811F036
:107E7000013811F484E001C083E08DD089C08234E0
:107E800011F484E103C0853419F485E0A6D080C0E4
:107E9000853579F488D0E82EFF2485D0082F10E0AE
:107EA000102F00270E291F29000F111F8ED06801E7
:107EB0006FC0863521F484E090D080E0DECF843638
:107EC00009F040C070D06FD0082F6DD080E0C81688
:107ED00080E7D80618F4F601B7BEE895C0E0D1E017
:107EE00062D089930C17E1F7F0E0CF16F0E7DF06D8
:107EF00018F0F601B7BEE89568D007B600FCFDCFD4
:107F0000A601A0E0B1E02C9130E011968C91119780
:107F100090E0982F8827822B932B1296FA010C0160
:107F200087BEE89511244E5F5F4FF1E0A038BF0790
:107F300051F7F601A7BEE89507B600FCFDCF97BE46
:107F4000E89526C08437B1F42ED02DD0F82E2BD052
:107F50003CD0F601EF2C8F010F5F1F4F84911BD097
:107F6000EA94F801C1F70894C11CD11CFA94CF0C13
:107F7000D11C0EC0853739F428D08EE10CD085E9AC
:107F80000AD08FE07ACF813511F488E018D01DD067
:107F900080E101D065CF982F8091C00085FFFCCF94
:107FA0009093C60008958091C00087FFFCCF809118
:107FB000C00084FD01C0A8958091C6000895E0E648
:107FC000F0E098E1908380830895EDDF803219F02E
:107FD00088E0F5DFFFCF84E1DECF1F93182FE3DFCA
:107FE0001150E9F7F2DF1F91089580E0E8DFEE27F6
:047FF000FF270994CA
:027FFE00040479
:00000001FF
