:100000000C945D000C9485000C9485000C94850084
:100010000C9485000C9485000C9485000C9485004C
:100020000C9485000C9485000C9485000C9485003C
:100030000C9485000C9485000C9485000C9485002C
:100040000C9432050C9485000C9400050C94DA0491
:100050000C9485000C9485000C9485000C9485000C
:100060000C9485000C94850000000008000201003B
:100070000003040700000000000000000000000072
:10008000250028002B0000000000240027002A0083
:10009000040404040404040402020202020203032E
:1000A0000303030301020408102040800102040836
:1000B00010200102040810207C0511241FBECFEF80
:1000C000D8E0DEBFCDBF11E0A0E0B1E0E2E2F0E1B8
:1000D00002C005900D92AE34B107D9F722E0AEE42C
:1000E000B1E001C01D92A231B207E1F710E0CDE509
:1000F000D0E004C02197FE010E940908CC35D10749
:10010000C9F70E94C6050C940F080C94000090E0FB
:10011000FC01EC55FF4F249180579F4FFC018491C7
:10012000882399F090E0880F991FFC01EA57FF4F50
:10013000A591B491FC01E458FF4F859194918FB73C
:10014000F894EC91E22BEC938FBF0895AF92BF929D
:10015000CF92DF92EF92FF920F931F93CF93DF9393
:100160006C017B018B01040F151FEB015E01AE18C2
:10017000BF08C017D10759F06991D601ED91FC91E4
:100180000190F081E02DC6010995892B79F7C50111
:10019000DF91CF911F910F91FF90EF90DF90CF9063
:1001A000BF90AF900895FC01538D448D252F30E012
:1001B000842F90E0821B930B541710F0CF96089574
:1001C00001970895FC01918D828D981761F0A28DA1
:1001D000AE0FBF2FB11D5D968C91928D9F5F9F7367
:1001E000928F90E008958FEF9FEF0895FC01918D1D
:1001F000828D981731F0828DE80FF11D858D90E08A
:1002000008958FEF9FEF0895FC01918D228D892F26
:1002100090E0805C9F4F821B91098F73992708950E
:100220008DE591E00E94040121E0892B09F420E092
:10023000822F089580E090E0892B29F00E94100120
:1002400081110C9400000895FC01A48DA80FB92F12
:10025000B11DA35ABF4F2C91848D90E001968F73EE
:100260009927848FA689B7892C93A089B1898C910D
:10027000837080648C93938D848D981306C002885C
:10028000F389E02D80818F7D80830895EF92FF9226
:100290000F931F93CF93DF93EC0181E0888F9B8DA9
:1002A0008C8D98131AC0E889F989808185FF15C063
:1002B0009FB7F894EE89FF896083E889F989808186
:1002C0008370806480839FBF81E090E0DF91CF9155
:1002D0001F910F91FF90EF900895F62E0B8D10E077
:1002E0000F5F1F4F0F731127E02E8C8D8E110CC0E6
:1002F0000FB607FCFACFE889F989808185FFF5CF31
:10030000CE010E942401F1CFEB8DEC0FFD2FF11DEA
:10031000E35AFF4FF0829FB7F8940B8FEA89FB896D
:1003200080818062CFCFCF93DF93EC01888D8823CB
:10033000B9F0AA89BB89E889F9898C9185FD03C048
:10034000808186FD0DC00FB607FCF7CF8C9185FF2D
:10035000F2CF808185FFEDCFCE010E942401E9CF4D
:10036000DF91CF91089590E0FC01E859FF4F24916F
:10037000FC01EC55FF4F3491FC01E057FF4FE49135
:10038000EE23C9F0222339F0233001F1A8F4213003
:1003900019F1223029F1F0E0EE0FFF1FE458FF4F72
:1003A000A591B4918FB7F894EC91611126C0309566
:1003B0003E233C938FBF08952730A9F02830C9F021
:1003C000243049F7809180008F7D03C080918000A8
:1003D0008F7780938000DFCF84B58F7784BDDBCFAC
:1003E00084B58F7DFBCF8091B0008F778093B00074
:1003F000D2CF8091B0008F7DF9CF3E2BDACF8E50D7
:10040000806480937C0080917A00806480937A007D
:1004100080917A0086FDFCCF8091780090917900E0
:1004200008953FB7F8948091530190915401A091A1
:100430005501B091560126B5A89B05C02F3F19F074
:100440000196A11DB11D3FBFBA2FA92F982F882754
:10045000BC01CD01620F711D811D911D42E0660F2F
:10046000771F881F991F4A95D1F708958F929F9201
:10047000AF92BF92CF92DF92EF92FF924B015C015D
:100480000E9411026B017C010E9411026C197D090E
:100490008E099F09683E734081059105A8F321E00C
:1004A000821A9108A108B10888EEC80E83E0D81E10
:1004B000E11CF11C81149104A104B10429F7FF90FF
:1004C000EF90DF90CF90BF90AF909F908F90089566
:1004D000089590E080E008958F929F92AF92BF922E
:1004E000EF92FF920F931F93CF93DF93CDB7DEB7B9
:1004F000A1970FB6F894DEBF0FBECDBF7C01FA0105
:10050000CB0119A2223008F42AE08E010F5D1F4FA3
:10051000822E912CB12CA12CBF01A50194010E9427
:10052000D107F901CA016A3074F5605DD8016E9394
:100530008D01232B242B252B79F790E080E0109759
:1005400089F0FD0101900020E9F73197AF014A1BC6
:100550005B0BD701ED91FC910280F381E02DB80196
:10056000C7010995A1960FB6F894DEBF0FBECDBFA7
:10057000DF91CF911F910F91FF90EF90BF90AF90BF
:100580009F908F900895695CD1CFFC01019000206D
:10059000E9F73197AF01481B590BBC018AEF91E095
:1005A0000C94A600CF92DF92EF92FF920F931F93CD
:1005B000CF93DF936B01770FEE08FF08F7FE1FC0A4
:1005C000EC01E881F9810190F081E02D6DE209955F
:1005D0008C0144275527BA014C195D096E097F0922
:1005E0002AE0CE010E946C02800F911FDF91CF9113
:1005F0001F910F91FF90EF90DF90CF9008952AE028
:10060000B701A601DF91CF911F910F91FF90EF905D
:10061000DF90CF900C946C02CF93DF93EC0160E0FD
:100620008E810E94B30161E08E810E94B30160E07F
:100630008E810E94B3018BE891E00197F1F7DF9181
:10064000CF910895CF92DF92EF92FF920F931F9375
:10065000CF93DF936C017C0187E0E80EF11CD0E0C2
:10066000C0E0062F10E0B8010C2E02C0759567950A
:100670000A94E2F76170F70181917F010E94B30152
:100680002196C430D10579F7C601DF91CF911F9132
:100690000F91FF90EF90DF90CF900C940C03CF92CE
:1006A000DF92EF92FF920F931F93CF93DF93EC01B2
:1006B000F62E642F8C810E94B3018D818F3F19F03B
:1006C00060E00E94B3010F2D10E08F8584FF25C0EC
:1006D0006E0187E0C80ED11CF12CE12CB8010E2C64
:1006E00002C0759567950A94E2F76170F6018191F1
:1006F0006F010E94B301FFEFEF1AFF0A88E0E816CE
:10070000F10461F7CE01DF91CF911F910F91FF901E
:10071000EF90DF90CF900C940C03B80184E07595B6
:1007200067958A95E1F7CE010E9422036F2DCE01D5
:10073000DF91CF911F910F91FF90EF90DF90CF90BD
:100740000C94220340E0682F8AEF91E00C944F0351
:10075000CF93DF93823029F49091090298609093AF
:10076000090280930D0210920E0280E480930F0222
:1007700080E18093100280E5809311028091FE0158
:100780000E9487008091FF018F3F11F00E94870037
:10079000809100020E948700CAEFD1E09E012A5F8B
:1007A00031408091090284FD0AC084E090E02196E6
:1007B000281739073CF48E810E948700EFCF88E02C
:1007C00090E0F5CF8BE39DE00197F1F760E0809139
:1007D000FE010E94B30160E0809100020E94B3011B
:1007E0008091FF018F3F19F060E00E94B30180917A
:1007F000090284FD39C063E08AEF91E00E94220380
:10080000CBE4D6E4CE010197F1F763E08AEF91E003
:100810000E9422032197F1F763E08AEF91E00E94A2
:10082000220383E592E00197F1F762E08AEF91E01D
:100830000E9422038091090280620E94A20384E048
:1008400080930A028CE00E94A20381E00E94A2032E
:100850008BE39FE10197F1F782E080930B0286E042
:10086000DF91CF910C94A20380620E94A2038BE4DB
:1008700096E40197F1F78091090280620E94A20339
:1008800083E592E00197F1F78091090280620E946E
:10089000A203D0CF90910D02691710F06FEF690F8E
:1008A000E62FF0E0E650FE4F9489890F80680C94A3
:1008B000A20380915B0190915C0186309105D4F098
:1008C00060E080E00E944A048EE191E00E94C5024F
:1008D0006AE070E080E090E00E94360261E08AE029
:1008E0000E944A048EE291E00E94C50261E080E02D
:1008F0000C94B301019690935C0180935B01089581
:100900008091590190915A018630910504F160E07F
:1009100080E00E944A048EE191E00E94C5026AE0F4
:1009200070E080E090E00E94360261E085E00E9485
:100930004A0485E391E00E94C5026AE070E080E02D
:1009400090E00E94360261E080E00C94B3010196D1
:1009500090935A0180935901089580915701909185
:10096000580186309105D4F060E080E00E944A048E
:100970008EE191E00E94C5026AE070E080E090E0C4
:100980000E94360261E080E00E944A048BE391E01D
:100990000E94C50261E080E00C94B301019690933F
:1009A000580180935701089541E00E944F0381E070
:1009B00090E008951F920F920FB60F9211242F937B
:1009C0003F934F935F936F937F938F939F93AF93D7
:1009D000BF93EF93FF938DE591E00E942401FF9177
:1009E000EF91BF91AF919F918F917F916F915F91A7
:1009F0004F913F912F910F900FBE0F901F90189520
:100A00001F920F920FB60F9211242F938F939F93E3
:100A1000EF93FF93E0916D01F0916E018081E09181
:100A20007301F091740182FD1BC090818091760169
:100A30008F5F8F7320917701821741F0E0917601EB
:100A4000F0E0E35AFE4F958F80937601FF91EF918E
:100A50009F918F912F910F900FBE0F901F9018951F
:100A60008081F4CF1F920F920FB60F9211242F9313
:100A70003F938F939F93AF93BF9380914F0190913A
:100A80005001A0915101B091520130914E0123E0EB
:100A9000230F2D3758F50196A11DB11D20934E014E
:100AA00080934F0190935001A0935101B093520154
:100AB0008091530190915401A0915501B09156013C
:100AC0000196A11DB11D8093530190935401A093F1
:100AD0005501B0935601BF91AF919F918F913F9176
:100AE0002F910F900FBE0F901F90189526E8230F9F
:100AF0000296A11DB11DD2CFEDE5F1E01382128265
:100B000088EE93E0A0E0B0E084839583A683B7836A
:100B100084E091E09183808385EC90E095878487E1
:100B200084EC90E09787868780EC90E0918B808BB7
:100B300081EC90E0938B828B82EC90E0958B848BA0
:100B400086EC90E0978B868B118E128E138E148E0E
:100B5000EAEFF1E01382128286E191E091838083D3
:100B60008CE084838FEF85838BE0868385E08783A9
:100B700084E0808783E0818782E082871386148601
:100B800015861686178681E00C94A803789484B5A0
:100B9000826084BD84B5816084BD85B5826085BD79
:100BA00085B5816085BD80916E00816080936E0007
:100BB00010928100809181008260809381008091F9
:100BC00081008160809381008091800081608093AA
:100BD00080008091B10084608093B1008091B0006A
:100BE00081608093B00080917A00846080937A0065
:100BF00080917A00826080937A0080917A0081608F
:100C000080937A0080917A00806880937A001092B5
:100C1000C100E0916D01F0916E0182E08083E0916E
:100C20006901F0916A011082E0916B01F0916C0111
:100C30008FEC808310927501E0917101F091720147
:100C400086E08083E0916F01F09170018081806186
:100C50008083E0916F01F0917001808188608083D2
:100C6000E0916F01F0917001808180688083E09154
:100C70006F01F091700180818F7D808389E00E94F7
:100C8000870088E00E94870087E00E94870080E05C
:100C90000E94870082E00E94A803CC24CA9483E0CB
:100CA000D82EE12CF12C9BE3892E9FE1992E20E098
:100CB000222E20E0322E8FE00E94FF0124E630E059
:100CC000DC010E940208A70196010E94B2072901D7
:100CD00080E10E94FF0124E630E0DC010E9402086E
:100CE000A70196010E94B207890181E10E94FF01DC
:100CF00024E630E0DC010E940208A70196010E9470
:100D0000B207E901B2018DE591E00E94D20283E3CE
:100D1000481651040CF4A7C061E089E003331105C3
:100D2000C4F0E3975CF00E94B3010E94AD0461E05F
:100D300088E00E94B3010E9480041AC00E94B3019F
:100D40000E94AD0461E088E00E94B3010E9480042B
:100D500081C0E3970CF472C00E94B3010E94AD04FD
:100D600060E088E00E94B30110925A01109259018C
:100D700061E087E00E94B3010E9459046EE170E0D7
:100D800080E090E00E9436028091570190915801D6
:100D9000863091055CF461E0892B09F0A5C080E004
:100DA0000E944A0488E491E00E94C50280915901A2
:100DB00090915A01863091055CF461E0892B09F02D
:100DC000A9C085E00E944A0487E491E00E94C50220
:100DD00080915B0190915C01863091055CF461E04B
:100DE000892B09F0A9C08AE00E944A0486E491E0B8
:100DF0000E94C5028091570190915801892B91F46E
:100E00008091590190915A01892B61F480915B0185
:100E100090915C01892B31F481E00E94A203C4010E
:100E20000197F1F72114310409F445CF0E94100114
:100E3000882309F440CF0E9400003DCF0E94B301F7
:100E40000E94AD0460E088E00E94B30110925A0154
:100E50001092590160E087E00E94B30110925C019A
:100E600010925B018BCF60E089E00333110584F0C1
:100E7000E3973CF00E94B301109258011092570181
:100E800056CF0E94B30110925801109257015ACFC9
:100E9000E3973CF00E94B301109258011092570161
:100EA0005FCF0E94B301109258011092570160E089
:100EB00080E00E94B30160E088E00E94B3011092DC
:100EC0005A011092590160E080E00E94B30160E095
:100ED00087E00E94B30110925C0110925B0160E018
:100EE00080E00E94B3014ACF80E00E944A0481E47E
:100EF00091E00E94C50260915701709158018AEFFC
:100F000091E00E94D20281E491E00E94C5028BE44C
:100F100091E04ACF85E00E944A0480E491E00E947B
:100F2000C5026091590170915A018AEF91E00E94C7
:100F3000D20283E491E04ACF8AE00E944A0489E425
:100F400091E00E94C50281E491E00E94C502609197
:100F50005B0170915C018AEF91E00E94D20281E412
:100F600091E046CF052E97FB1EF400940E94C9071E
:100F700057FD07D00E94D10707FC03D04EF40C9414
:100F8000C90750954095309521953F4F4F4F5F4F82
:100F9000089590958095709561957F4F8F4F9F4FE5
:100FA0000895A1E21A2EAA1BBB1BFD010DC0AA1FAA
:100FB000BB1FEE1FFF1FA217B307E407F50720F0C2
:100FC000A21BB30BE40BF50B661F771F881F991F3D
:100FD0001A9469F760957095809590959B01AC0186
:100FE000BD01CF010895A29FB001B39FC001A39F8F
:100FF000700D811D1124911DB29F700D811D112452
:10100000911D08950E94F307B7FF0895821B930B6B
:101010000895EE0FFF1F0590F491E02D0994F894C8
:02102000FFCF00
:10102200000000004601A600D30093010401E20083
:10103200F60000000000D404A600690268024558C8
:10104200545241204E4F495345204F4E3A002046BC
:101052004C4F523200464C4F52310047524E4400E0
:0E106200202D002D2000202020202020000026
:00000001FF
